:020000040800F2
:1000000000500020894D0008D14D0008D14D000856
:10001000D14D0008D14D0008D14D0008000000006E
:10002000000000000000000000000000D14D0008AA
:10003000D14D000800000000D14D0008073D000828
:10004000D14D0008D14D0008D14D0008D14D000818
:10005000D14D0008D14D0008394C00083F4C000834
:10006000454C00084B4C0008514C0008D14D00088D
:10007000D14D0008D14D0008D14D0008D14D0008E8
:10008000D14D0008D14D0008D14D0008D14D0008D8
:1000900089560008D14D0008D14D0008574C000882
:1000A000D14D0008655E0008D14D0008795E00085A
:1000B0007D5E0008915E0008A55E0008D14D000835
:1000C000D14D0008D14D0008D14D0008D14D000898
:1000D000D14D00087949000891490008A949000854
:1000E0006D4C0008354200089556000800000000DD
:1000F0000000000000000000000000000000000000
:0C01000000000000000000005FF808F1A3
:10010C00034613F8012B002AFBD1181A013870474B
:10011C0081F0004102E000BF83F0004330B54FEAAC
:10012C0041044FEA430594EA050F08BF90EA020F19
:10013C001FBF54EA000C55EA020C7FEA645C7FEAAC
:10014C00655C00F0E2804FEA5454D4EB5555B8BFCF
:10015C006D420CDD2C4480EA020281EA030382EA40
:10016C00000083EA010180EA020281EA0303362DD2
:10017C0088BF30BD11F0004F4FEA01314FF4801CA5
:10018C004CEA113102D0404261EB410113F0004FB7
:10019C004FEA03334CEA133302D0524263EB43036E
:1001AC0094EA050F00F0A780A4F10104D5F1200E0C
:1001BC000DDB02FA0EFC22FA05F2801841F1000167
:1001CC0003FA0EF2801843FA05F359410EE0A5F13B
:1001DC0020050EF1200E012A03FA0EFC28BF4CF06C
:1001EC00020C43FA05F3C01851EBE37101F0004522
:1001FC0007D54FF0000EDCF1000C7EEB00006EEB2F
:10020C000101B1F5801F1BD3B1F5001F0CD34908B8
:10021C005FEA30004FEA3C0C04F101044FEA44520F
:10022C0012F5800F80F09A80BCF1004F08BF5FEA96
:10023C00500C50F1000041EB045141EA050130BD76
:10024C005FEA4C0C404141EB0101013C28BFB1F588
:10025C00801FE9D291F0000F04BF01460020B1FAD3
:10026C0081F308BF2033A3F10B03B3F120020CDAA6
:10027C000C3208DD02F1140CC2F10C0201FA0CF084
:10028C0021FA02F10CE002F11402D8BFC2F1200CE9
:10029C0001FA02F120FA0CFCDCBF41EA0C0190409F
:1002AC00E41AA2BF01EB0451294330BD6FEA0404E8
:1002BC001F3C1CDA0C340EDC04F11404C4F12002D3
:1002CC0020FA04F001FA02F340EA030021FA04F3E5
:1002DC0045EA030130BDC4F10C04C4F1200220FA3C
:1002EC0002F001FA04F340EA0300294630BD21FA7A
:1002FC0004F0294630BD94F0000F83F4801306BF40
:10030C0081F480110134013D4EE77FEA645C18BF33
:10031C007FEA655C29D094EA050F08BF90EA020FCA
:10032C0005D054EA000C04BF1946104630BD91EAC2
:10033C00030F1EBF0021002030BD5FEA545C05D1C5
:10034C004000494128BF41F0004130BD14F5800404
:10035C003CBF01F5801130BD01F0004545F0FE4178
:10036C0041F470014FF0000030BD7FEA645C1ABFAD
:10037C00194610467FEA655C1CBF0B46024650EAE4
:10038C00013406BF52EA033591EA030F41F4002110
:10039C0030BD00BF90F0000F04BF0021704730B596
:1003AC004FF4806404F132044FF000054FF000016B
:1003BC0050E700BF90F0000F04BF0021704730B52C
:1003CC004FF4806404F1320410F0004548BF404201
:1003DC004FF000013EE700BF42004FEAE2014FEA56
:1003EC0031014FEA02701FBF12F07F4393F07F4F31
:1003FC0081F06051704732F07F4208BF704793F034
:10040C007F4F04BF41F40021704730B54FF4607446
:10041C0001F0004521F000411CE700BF50EA010249
:10042C0008BF704730B54FF000050AE050EA0102F2
:10043C0008BF704730B511F0004502D5404261EB62
:10044C0041014FF4806404F132045FEA915C3FF4A3
:10045C00D8AE4FF003025FEADC0C18BF03325FEA40
:10046C00DC0C18BF033202EBDC02C2F1200300FAF1
:10047C0003FC20FA02F001FA03FE40EA0E0021FA16
:10048C0002F11444BDE600BF70B54FF0FF0C4CF404
:10049C00E06C1CEA11541DBF1CEA135594EA0C0FB6
:1004AC0095EA0C0F00F0DEF82C4481EA030621EAF1
:1004BC004C5123EA4C5350EA013518BF52EA03352C
:1004CC0041F4801143F4801338D0A0FB02CE4FF0DE
:1004DC000005E1FB02E506F00042E0FB03E54FF00E
:1004EC000006E1FB03569CF0000F18BF4EF0010E06
:1004FC00A4F1FF04B6F5007F64F5407404D25FEA02
:10050C004E0E6D4146EB060642EAC62141EA5551B4
:10051C004FEAC52040EA5E504FEACE2EB4F1FD0CF6
:10052C0088BFBCF5E06F1ED8BEF1004F08BF5FEA74
:10053C00500E50F1000041EB045170BD06F0004626
:10054C0046EA010140EA020081EA0301B4EB5C04D3
:10055C00C2BFD4EB0C0541EA045170BD41F48011CB
:10056C004FF0000E013C00F3AB8014F1360FDEBFF0
:10057C00002001F0004170BDC4F10004203C35DACC
:10058C000C341BDC04F11404C4F1200500FA05F34F
:10059C0020FA04F001FA05F240EA020001F00042F0
:1005AC0021F0004110EBD37021FA04F642EB060166
:1005BC005EEA430E08BF20EAD37070BDC4F10C0490
:1005CC00C4F1200500FA04F320FA05F001FA04F254
:1005DC0040EA020001F0004110EBD37041F1000140
:1005EC005EEA430E08BF20EAD37070BDC4F120054B
:1005FC0000FA05F24EEA020E20FA04F301FA05F2B3
:10060C0043EA020321FA04F001F0004121FA04F25A
:10061C0020EA020000EBD3705EEA430E08BF20EA2A
:10062C00D37070BD94F0000F0FD101F00046400064
:10063C0041EB010111F4801F08BF013CF7D041EAE6
:10064C00060195F0000F18BF704703F000465200EA
:10065C0043EB030313F4801F08BF013DF7D043EABB
:10066C000603704794EA0C0F0CEA135518BF95EA71
:10067C000C0F0CD050EA410618BF52EA4306D1D1F8
:10068C0081EA030101F000414FF0000070BD50EA17
:10069C00410606BF1046194652EA430619D094EAA1
:1006AC000C0F02D150EA013613D195EA0C0F05D18B
:1006BC0052EA03361CBF104619460AD181EA0301DF
:1006CC0001F0004141F0FE4141F470014FF0000097
:1006DC0070BD41F0FE4141F4780170BD70B54FF032
:1006EC00FF0C4CF4E06C1CEA11541DBF1CEA1355B2
:1006FC0094EA0C0F95EA0C0F00F0A7F8A4EB050494
:10070C0081EA030E52EA03354FEA013100F088808A
:10071C004FEA03334FF0805545EA131343EA126353
:10072C004FEA022245EA111545EA10654FEA002608
:10073C000EF000419D4208BF964244F1FD0404F5C1
:10074C00407402D25B084FEA3202B61A65EB03051D
:10075C005B084FEA32024FF480104FF4002CB6EBDA
:10076C00020E75EB030E22BFB61A754640EA0C005A
:10077C005B084FEA3202B6EB020E75EB030E22BF9A
:10078C00B61A754640EA5C005B084FEA3202B6EBDB
:10079C00020E75EB030E22BFB61A754640EA9C009A
:1007AC005B084FEA3202B6EB020E75EB030E22BF6A
:1007BC00B61A754640EADC0055EA060E18D04FEA28
:1007CC00051545EA16754FEA06164FEAC30343EAC8
:1007DC0052734FEAC2025FEA1C1CC0D111F4801F95
:1007EC000BD141EA00014FF000004FF0004CB6E78E
:1007FC0011F4801F04BF01430020B4F1FD0C88BF2D
:10080C00BCF5E06F3FF6AFAEB5EB030C04BFB6EB37
:10081C00020C5FEA500C50F1000041EB045170BD2A
:10082C000EF0004E4EEA113114EB5C04C2BFD4EB57
:10083C000C0541EA045170BD41F480114FF0000EDB
:10084C00013C90E645EA060E8DE60CEA135594EA57
:10085C000C0F08BF95EA0C0F3FF43BAF94EA0C0F5A
:10086C000AD150EA01347FF434AF95EA0C0F7FF4CF
:10087C0025AF104619462CE795EA0C0F06D152EA23
:10088C0003353FF4FDAE1046194622E750EA410607
:10089C0018BF52EA43067FF4C5AE50EA41047FF418
:1008AC000DAF52EA43057FF4EBAE12E74FF0FF3C7D
:1008BC0006E000BF4FF0010C02E000BF4FF0010C4E
:1008CC004DF804CD4FEA410C7FEA6C5C4FEA430CC7
:1008DC0018BF7FEA6C5C1BD001B050EA410C0CBF16
:1008EC0052EA430C91EA030F02BF90EA020F002078
:1008FC00704710F1000F91EA030F58BF994208BFDF
:10090C0090422CBFD8176FEAE37040F0010070479B
:10091C004FEA410C7FEA6C5C02D150EA013C07D1F2
:10092C004FEA430C7FEA6C5CD6D152EA033CD3D03D
:10093C005DF8040B704700BF8446104662468C4637
:10094C001946634600E000BF01B5FFF7B7FF00286A
:10095C0048BF10F1000F01BD4DF808EDFFF7F4FF93
:10096C000CBF012000205DF808FB00BF4DF808ED1E
:10097C00FFF7EAFF34BF012000205DF808FB00BF41
:10098C004DF808EDFFF7E0FF94BF012000205DF863
:10099C0008FB00BF4DF808EDFFF7CEFF94BF012018
:1009AC0000205DF808FB00BF4DF808EDFFF7C4FF11
:1009BC0034BF012000205DF808FB00BF4A0011D2B3
:1009CC0012F5001211D20DD56FF47873B3EB62529D
:1009DC000ED44FEAC12343F0004343EA505323FAA9
:1009EC0002F070474FF00000704750EA013002D11E
:1009FC004FF0FF3070474FF0000070474FEA410254
:100A0C00B2F1E04324BFB3F5001CDCF1FE5C0DD960
:100A1C0001F0004C4FEAC0024CEA5070B2F1004FAA
:100A2C0040EB830008BF20F00100704711F0804FAD
:100A3C0021D113F13872BCBF01F00040704741F472
:100A4C0080114FEA5252C2F11802C2F1200C10FA76
:100A5C000CF320FA02F018BF40F001004FEAC1235A
:100A6C004FEAD32303FA0CFC40EA0C0023FA02F3FE
:100A7C004FEA4303CCE77FEA625307D150EA0133D4
:100A8C001EBF4FF0FE4040F44000704701F00040A4
:100A9C0040F0FE4040F40000704700BF4FF0FF3CB8
:100AAC0006E000BF4FF0010C02E000BF4FF0010C5C
:100ABC004DF804CD4FEA40024FEA41037FEA226C25
:100ACC0018BF7FEA236C11D001B052EA530C18BF47
:100ADC0090EA010F58BFB2EB030088BFC81738BFAC
:100AEC006FEAE17018BF40F0010070477FEA226C9A
:100AFC0002D15FEA402C05D17FEA236CE4D15FEA96
:100B0C00412CE1D05DF8040B704700BF84460846C9
:100B1C006146FFE70FB5FFF7C9FF002848BF10F18A
:100B2C00000F0FBD4DF808EDFFF7F4FF0CBF0120CF
:100B3C0000205DF808FB00BF4DF808EDFFF7EAFF59
:100B4C0034BF012000205DF808FB00BF4DF808ED14
:100B5C00FFF7E0FF94BF012000205DF808FB00BF09
:100B6C004DF808EDFFF7D2FF94BF012000205DF88F
:100B7C0008FB00BF4DF808EDFFF7C8FF34BF01209C
:100B8C0000205DF808FB00BF10B5054C237833B985
:100B9C00044B13B10448AFF300800123237010BD44
:100BAC0050040020000000002C95000808B5034BF1
:100BBC001BB103490348AFF3008008BD00000000DF
:100BCC00540400202C9500082DE9F84307460C46E8
:100BDC004D1E01F1030915F8018F7E19361B3046A5
:100BEC0003F036FB804503D04146304603F068FBEA
:100BFC004D45F0D12046BDE8F883F8B50C460D46BE
:100C0C000F1D461A701903F023FB05F8010BBD42AA
:100C1C00F8D12046F8BD00000000000013B50221F9
:100C2C00002004F0A1FE0221002004F09DFE012111
:100C3C00022004F099FE0021022004F0E3FE194C7E
:100C4C000421142004F090FE0C2004F063FE062214
:100C5C0020464FF4E13104F0F1FF6421204605F009
:100C6C00D1F9114800F09AF9104805F051FD104BDC
:100C7C0001A91B6804200193FFF7BFFF0D4B01A9CD
:100C8C001B6800200193FFF7B8FF04A1D1E9000114
:100C9C00094BC3E9000102B010BD00BFCDCCCCCCD8
:100CAC00CCCC1640540A0020C00400204895000803
:100CBC0004000020000000207004002008B5012171
:100CCC00022004F09FFE322004F0C2FEBDE8084072
:100CDC000021022004F096BE2DE9F341304C002592
:100CEC002068FFF779FB02460B462E4805F08AFC7C
:100CFC002068FFF771FB2C4ACDE9000132212B480B
:100D0C0005F026FD0646294FDFF8A880404617F867
:100D1C00011B013500F0E2F9AE42F7DC0025244B53
:100D2C00294618682560FFF707FFF0B11A21214802
:100D3C0000F0D4F918211F4800F0D0F948211D48C3
:100D4C0000F0CCF969211B4800F0C8F9672119485B
:100D5C0000F0C4F96821174800F0C0F90D211548BE
:100D6C0002B0BDE8F04100F0B9B9134B2946186840
:100D7C00FFF700FF88B11A210E4800F0AFF91821D7
:100D8C000C4800F0ABF94C210A4800F0A7F96F2190
:100D9C00084800F0A3F97721DDE702B0BDE8F08147
:100DAC0078040020619500087395000884040020E5
:100DBC0000000020C0040020040000202DE9F041B8
:100DCC00674888B004F064FE00287DDD644902A801
:100DDC0005F01AF9634905A805F06FF905A902A8F1
:100DEC0005F0B0F9044605A805F022F9002C65DBE6
:100DFC004FF4FA7400275A4EDFF89881304604F00D
:100E0C0047FE00281BDD314605A805F0FDF805A8B6
:100E1C0005F0A2F939460546FFF7ACFE60B101A911
:100E2C0000200195FFF7D0FE2846FFF7D5FA0246C1
:100E3C000B46404605F0E6FB05A805F0F9F8142032
:100E4C0004F006FE013CD9D1474905A805F035F957
:100E5C0005A902A805F076F9054605A805F0E8F8FD
:100E6C00002D2EDB00273E4EDFF82C81002C28DDD8
:100E7C00304604F00DFE00281BDD314605A805F0B8
:100E8C00C3F805A805F068F939460546FFF772FE68
:100E9C0060B101A904200195FFF796FE2846FFF7E3
:100EAC009BFA02460B46404605F0ACFB05A805F044
:100EBC00BFF81420143C04F0CBFDD7E742F21074B9
:100ECC00C2E702A805F0B4F8284C257805B3284DE4
:100EDC002B68302B33DD00252570264C2068FFF75E
:100EEC0069FA0022244BFFF7F9FB0022234BFFF792
:100EFC00CBFA234BD3E90023FFF7C6FAFFF77EFDAD
:100F0C00204B25601860FFF7E7FEFFF7D7FE10E0D7
:100F1C00142004F013FD1C4B0128186006DD01237E
:100F2C002370134B19481D6005F0F2FB2378002B3E
:100F3C00CDD1142004F08CFD08B0BDE8F081142054
:100F4C0004F0FCFC021EF4DD0A4911480B68134442
:100F5C000B6029680131296005F054FBE9E700BFFB
:100F6C00540A002079950008929500087C04002012
:100F7C00BC040020B8040020000049400000303FB1
:100F8C00700400207804002080040020AB95000839
:100F9C00BE950008819500089A950008002003F082
:100FAC0013BF07B50B7868468DF800304B788DF879
:100FBC0001308B788DF80230CB788DF803300B79BB
:100FCC008DF804304B798DF805308B798DF806301F
:100FDC00CB7908218DF8073003F022FF142004F0A0
:100FEC0037FD03B05DF804FB872910B521D97831A2
:100FFC00C9B2837A8B4216D0C37A8B4213D0037B4F
:10100C008B4210D0437B8B420DD0837B8B420AD01A
:10101C00C37B8B4207D0002300F10A0212F8014B6C
:10102C0014BB0344997200F10801FFF7BAFF0120C9
:10103C0010E00A0608D50123803903FA01F1037A7E
:10104C00194301720021D4E7094B595C19B90123EA
:10105C004360002010BD0B0641BF037A01F07F01F5
:10106C0043F002030372C4E70133062BD6D1EEE73B
:10107C00E4950008872938B514D97831C9B2002411
:10108C0000F10A0300F1100219B11D788D4208BF5E
:10109C001C7001339A42F7D100F10801FFF781FF70
:1010AC00012038BD0A0608D5012380398B40017A0E
:1010BC0021EA030101720021E1E7074B595C41B1C0
:1010CC000B0641BF037A01F07F0123F00203037288
:1010DC00D5E70846E5E700BFE495000870B505467E
:1010EC000E46FFF781FF044631462846FFF7C2FF44
:1010FC00E0B270BD0022024B5A60024A1A6070477F
:10110C00C0040020DC95000803460A4910B50868A5
:10111C000344EFF30882934205D90C224FF0FF30C1
:10112C00054B1A6010BD054A054C121B9342F4D2B4
:10113C000B60F7E70800002034140020005000205A
:10114C00000400004FF0FF3070474FF400530020B4
:10115C004B6070470120704700207047002070479B
:10116C00FEE700001622024B4FF0FF301A6070476A
:10117C0034140020012070477047000038B50E4B26
:10118C00054618784FF47A73B3FBF0F30B4A1068EA
:10119C00B0FBF3F000F0DCFB044658B90F2D09D876
:1011AC00024629464FF0FF3000F07EFB2046044BF0
:1011BC001D6038BD0120FCE70C0000202800002039
:1011CC0010000020074A08B51368032043F01003F1
:1011DC00136000F057FB0020FFF7D0FFFFF7CCFFA8
:1011EC00002008BD00200240034A044B11681B7804
:1011FC000B441360704700BF6C0B00200C000020E8
:10120C00014B1868704700BF6C0B0020F7B5002627
:10121C0004460D460196FFF7F3FF236807469A68CC
:10122C00D20508D50120A36A84F8246043F020037A
:10123C00A36203B0F0BD5A68D60503D4DB6A13F47D
:10124C00700F3AD0394B02201E6801F031FD236833
:10125C00374A1969B6FBF0F61142364A4DD1D868B7
:10126C003549084249D11969114257D1DA68334BD3
:10127C001A4214BF292314235E43019BB34220D28C
:10128C006A1C05D085B1FFF7BBFFC01BA8420BD869
:10129C00019B01330193F0E7681C0FD025B1FFF7D8
:1012AC00AFFFC01BA84208D9A36A032043F0040374
:1012BC00A362002384F82430BBE7226813689907E3
:1012CC00EAD56FF0120322681360A36A43F400732B
:1012DC00A362936803F46023B3F5602F24D1207BC1
:1012EC0010BBA36A23F48073A362A36ADB041BD430
:1012FC00A36A43F00103A3629BE71969114203D16E
:10130C00D9680E4A11420BD019690D4A114209D104
:10131C00DB68134214BFFC235423ADE72923ABE74E
:10132C005423A9E7FC23A7E7002082E7280000202C
:10133C00244992249224491224499200922449006F
:10134C00499224000368D86C70470000002373B5E1
:10135C00019390F824300446012B6CD0012380F8C3
:10136C0024304D680268062D086805EB850322D8E9
:10137C001F26556B053B9E4025EA060500FA03F334
:10138C002B43536309288B6800EB40054FF0070192
:10139C0029D9D6681E3DA94026EA0101AB400B4372
:1013AC00D360A0F11003012B25D90020002384F871
:1013BC00243002B070BD0C2D4FF01F0509D8166BF0
:1013CC00233B9D4026EA050500FA03F32B431363E8
:1013DC00D8E7D66A413B9D4026EA050500FA03F39F
:1013EC002B43D362CEE71069A94020EA0101AB4040
:1013FC000B431361D9E7114B9A4216D193681B0228
:10140C00D3D49368102843F400039360CDD10C4BD4
:10141C000C4A1B68B3FBF2F20A2353430193019B62
:10142C00002BC2D0019B013BF8E7A36A012043F0DB
:10143C002003A362BAE70220BBE700BF00240140EF
:10144C002800002040420F00806A7047002373B5CB
:10145C000193036804469A68D20702D5002002B0B3
:10146C0070BD9A6842F001029A60124B124A1B68D6
:10147C00B3FBF2F30193019BC3B9FFF7C1FE064620
:10148C0023689D6815F00105E8D1FFF7B9FE801BB4
:10149C000228F5D9A36A012043F01003A362E36A82
:1014AC0084F8245043F00103E362D8E7019B013B2D
:1014BC00E0E700BF2800002040420F0010B590F874
:1014CC0024300446012B54D0012380F82430FFF73C
:1014DC00BDFF002849D1A36A274A23F4407323F0A7
:1014EC00010343F48073A3622368934204D123491C
:1014FC004A6812F4702F2ED1A26A22F48012A262D2
:10150C005A68520541BFA26A22F4405242F48052FA
:10151C00A262A26A12F480521CBFE26A22F0060296
:10152C00E262002284F824206FF002021A609A68AA
:10153C0002F46022B2F5602F13D10F4A934205D109
:10154C00A2F58062526812F4702F0AD19A6842F4A4
:10155C00A0029A6010BDA26A42F48012A2624A688C
:10156C00CFE79A6842F48012F3E7002384F8243022
:10157C00F0E70220EEE700BF002801400024014004
:10158C0038B5036804469A68D20701D4002038BDE8
:10159C009A6822F001029A60FFF732FE0546236832
:1015AC009B68DB07F2D5FFF72BFE401B0228F6D910
:1015BC00A36A012043F01003A362E36A43F0010322
:1015CC00E362E4E7F8B5044600286ED0836A23B9D9
:1015DC00C36280F8243003F0EFF92046FFF7D0FF08
:1015EC00A36A13F0100362D1002860D1A26AE569E6
:1015FC00616822F4885222F0020242F0020229436E
:10160C00A568A262227BB5F5807F41EA420137D002
:10161C00012D14BF00274FF48077267D012E06D1B3
:10162C0082BBA269013A47EA423646F40067226857
:10163C00B5F5807F566826F4694646EA070656607B
:10164C0097681D4E06EA070646EA0106966001D029
:10165C00012D02D12369013B1B05D56A25F47005C8
:10166C002B43D3629268154B1340994213D100233C
:10167C00E362A36A23F0030343F00103A362F8BD02
:10168C002F46CAE7A26A42F02002A262E26A42F046
:10169C000102E262CBE7A36A23F0120343F01003CA
:1016AC00A362E36A43F00103E3620120E7E7A36A64
:1016BC0043F01003A362F8E7FDF7E1FFFE0E1FFFF6
:1016CC0038B50446002850D0836A43F00203836285
:1016DC00FFF756FF0546002842D16FF01F02236822
:1016EC0023481A605968234A0A405A609968224A6A
:1016FC000A409A60DA6802F07F42DA601A6902F0F6
:10170C0040421A6159691D4A114059619969114049
:10171C009961D9691140D961196A11401962596AE4
:10172C0011405962996A0A409A62DA6A02F07F4261
:10173C00DA62DA6A02F07F42DA621A6B02F0404235
:10174C001A635A6B02F040425A63996B01409963D9
:10175C009A6B02409A63204603F060F9E562A56239
:10176C00002384F82430284638BD0125FBE700BF50
:10177C000000C0FF00003FFFF00601FF00F0FFFF7C
:10178C0010B590F824300446012B11D0012380F8B9
:10179C002430FFF7F5FE38B9A36A23F4885323F0FD
:1017AC00010343F00103A362002384F8243010BD2D
:1017BC000220FCE7002373B5019390F82430044613
:1017CC00012B5AD0012380F82430FFF7D9FE0546AF
:1017DC00002832D1A36A022023F4885323F0020399
:1017EC0043F00203A362264B1E6801F061FAB6FBBC
:1017FC00F0F676000196019B1BBB2046FFF726FEF8
:10180C002268936843F008039360FFF7F9FC0646DF
:10181C0023689A68120718D49A6842F004029A60F6
:10182C00FFF7EEFC064623689B685B071FD4A36A90
:10183C0023F0030343F00103A362002384F8243054
:10184C0012E0019B013B0193D5E7FFF7D9FC801B0C
:10185C000A28DDD9A36A012523F0120343F01003F3
:10186C00A362002384F82430284602B070BDFFF731
:10187C00C7FC801B0A28D6D9ECE70225F4E700BF89
:10188C002800002007490302CA6803F4E06322F42D
:10189C00E0621204120C134343F0BF6343F40033B1
:1018AC00CB60704700ED00E0164B30B5DC68C4F33C
:1018BC000224C4F10703251D042B28BF0423062D85
:1018CC004FF0FF3598BF002405FA03F388BF033CA3
:1018DC0021EA0303A34005FA04F422EA04020028D7
:1018EC0043EA0203ACBF00F16040074A4FEA03131E
:1018FC00DBB2ABBF00F5614000F00F0080F80033A5
:10190C00135430BD00ED00E014ED00E0002808DBBE
:10191C000123420900F01F0003FA00F0014B43F8C9
:10192C002200704700E100E000280DDB0122430992
:10193C0000F01F0002FA00F0044A203342F82300A2
:10194C00BFF34F8FBFF36F8F704700BF00E100E014
:10195C000138B0F1807F0AD2F021064B064A58605C
:10196C0082F823100020072298601A60704701202B
:10197C00704700BF10E000E000ED00E0002809DB3C
:10198C000122430900F01F0002FA00F0024A603302
:10199C0042F82300704700BF00E100E0704708B533
:1019AC00FFF7FCFF08BD000008B590F82130022BB2
:1019BC0003D004238363012008BD03681A6822F056
:1019CC000E021A601A6822F001021A60174A93423A
:1019DC001CD0143293421BD0143293421AD01432BE
:1019EC0093421AD0143293421AD0143293420CBF41
:1019FC004FF480134FF080730D4A53604FF4807393
:101A0C000384436B7BB198470020D5E70123F3E7B0
:101A1C001023F1E74FF48073EEE74FF48053EBE7BC
:101A2C004FF48033E8E71846C6E700BF08000240D1
:101A3C0000000240114AD36813F0100305D010497E
:101A4C00CB6943F00203CB611023D268500706D553
:101A5C000B4943F00403CA6942F00102CA61074A08
:101A6C00D169C90708D50648C16941F00401C161B3
:101A7C00D16921F00101D161D3607047002002408F
:101A8C00700B0020064B186910F0800007D0054A37
:101A9C005A6002F188325A601869C0F3C01070475E
:101AAC000020024023016745034A0020136943F0DC
:101ABC0080031361704700BF00200240F8B5044654
:101ACC00FFF79EFB114D07462E46EB68D80712D444
:101ADC00EB68990644BF2023EB60F368DA0606D462
:101AEC00F369DB0703D4F06810F0040007D0FFF7AC
:101AFC00A1FF012003E0631CE7D00CB90320F8BD63
:101B0C00FFF77EFBC01BA042DFD9F7E700200240A5
:101B1C002DE9F84F254E1F46337E0546012B88468E
:101B2C00914640D001234CF250303376FFF7C6FF7C
:101B3C00A8BB012D03D0022D0CBF022504254FF0AC
:101B4C00000A5346DFF868B04FEA0A14C4F12001CA
:101B5C00A4F1200207FA01F129FA04F4F3610C4311
:101B6C0027FA02F21443DBF81020A4B242F001026F
:101B7C00CBF810204CF2503028F81A40FFF79EFF9B
:101B8C00DBF8102022F00102CBF8102038B90AF152
:101B9C00010A5FFA8AF295424FF00003D4D8002371
:101BAC003376BDE8F88F0220FBE700BF700B0020F6
:101BBC00002002400022064BDA61064B1A6942F003
:101BCC0004021A611A6942F040021A61704700BFA0
:101BDC00700B0020002002400022064BDA61064BFD
:101BEC001A6942F002021A6158611A6942F0400205
:101BFC001A617047700B0020002002402DE9F04163
:101C0C00224E0546337E8846012B3DD00124347686
:101C1C0003684CF25030022B13D1FFF74FFF20B169
:101C2C00012000233376BDE8F081FFF7C3FF4CF2AF
:101C3C005030FFF743FF164A136923F00403136176
:101C4C00EFE7FFF73BFF0028EAD14FF0FF33C8F86E
:101C5C0000302046AF680E4CD5E9023203EB8223EC
:101C6C00BB42DED93846FFF7B7FF4CF25030FFF7D6
:101C7C0025FF236923F00203236110B1C8F800701B
:101C8C00CFE707F58067E7E70220CCE7700B002071
:101C9C0000200240044A08B55169014202D050614B
:101CAC0002F0AEFF08BD00BF00040140F0B50446D1
:101CBC0087B0002867D090F8A93403F0FF021BB955
:101CCC0080F8A82403F044FC032325466E4684F8D0
:101CDC00A93455F8100B01F00BFC0FCD0FC62B6877
:101CEC00271D336097E80E00206801F0F1FB0021FE
:101CFC00206801F007FC00212346224601260846F5
:101D0C0004F1100582F82810918601310F29C2E9DF
:101D1C000E0082F8296082F82B001064A2F84800AB
:101D2C00A2F84A0002F12402ECD100210A4683F801
:101D3C006812A3F8741201310F29C3E99E2283F8AB
:101D4C00692283F86B22C3F88022A3F88822A3F8B7
:101D5C008A2203F12403EAD16E460FCD0FC62B68FD
:101D6C00336097E80E00206801F0CEFB4FF00003C3
:101D7C0084F824300123206884F8A93401F0CDFEC6
:101D8C00002007B0F0BD0120FBE710B590F8A83497
:101D9C000446012B0ED0012180F8A81400F07DFC24
:101DAC00206801F0B8FE206801F099FB002084F84F
:101DBC00A80410BD0220FCE710B590F8A824044636
:101DCC00012A0BD0012280F8241080F8A824006886
:101DDC0001F09BFE002084F8A80410BD0220FCE753
:101DEC0010B50446242011F0800F1BBF01F07F01B9
:101DFC0000FB014100FB0141283108BF01F51A71BC
:101E0C000A61CB7094F8A834012B09D00123206807
:101E1C0084F8A83401F094FB002084F8A80410BDC9
:101E2C000220FCE7242310B511F0800F1ABF01F03B
:101E3C007F0103FB010103FB010190F8A83414BFDF
:101E4C00283101F51A71012B044609D0012380F8C1
:101E5C00A834006801F01AFD002084F8A80410BD15
:101E6C000220FCE72DE9F04F242701F07F06774391
:101E7C00C119C1E99F23002307F51A79054681444E
:101E8C0085B00068C1F8843236B9494601F05BFE72
:101E9C00002005B0BDE8F08F91F8683230F823309F
:101EAC009BB2ADF80C30BDF80C30580632D5B1F8F9
:101EBC008A324FF0240B4FF6FE780BFB065407F5D5
:101ECC00227A07F28A27AA442F440BB1434524D126
:101EDC000BFB065696F87232002BD9D1D6F87C3211
:101EEC00002BD5D0D6F88032002BD1D096F86812C2
:101EFC002A6832F8213023F4804323F070031B044A
:101F0C001B0C83F4405343F4004343F0800322F84A
:101F1C002130BDE7B1F88832CBE7D4F87C12002928
:101F2C00B6D0D4F880020028B2D04FF6FF7CBDF8B2
:101F3C000C2052064BBFB4F87022B4F86E22A4F8F1
:101F4C008A82A4F88882634506D0984205D2494615
:101F5C00286801F066FD9BE700232868019301F0D7
:101F6C0064FE019BD4F884221A44C4F88422D4F869
:101F7C007C221A44C4F87C22D4F88022D21AC4F8E9
:101F8C0080221AB1D4F87822934204D2284694F8CD
:101F9C00681203F02DFB94F869327BBB94F868123D
:101FAC002A6832F8213023F0F0031B051B0D43F493
:101FBC00004343F0C00322F82130BDF80C3000225E
:101FCC0013F0400F0CBF51463946D1E85F3F9BB22E
:101FDC00ADF80E30BDF80E309BB243451ED094F8D0
:101FEC0068222B6833F822309BB2ADF80C30BDF868
:101FFC000C305B0617D4B4F8883266E7012BDCD1C1
:10200C0094F868122A6832F8213023F0F0031B058B
:10201C001B0D43F4404343F08003CCE7C1E8532F3E
:10202C00002BD2D1DBE7B4F88A324EE738B501F099
:10203C007F04242100256143441828310144C4E95C
:10204C000F236564006801F07EFD284638BD000052
:10205C002DE9F7430446006801F061FD020440F1EC
:10206C003B8100237E4FDFF8FC81DFF8FC91ADF85B
:10207C000430ADF806302068B0F844309BB21A0436
:10208C00ADF8043040F12881BDF8046016F00F065D
:10209C0040F0AB80BDF80410038811F010019BB226
:1020AC0026D13B400380B0F8503094F828209BB2E6
:1020BC0003EBC20300EB4300D0F80434E26BC3F330
:1020CC00090363641344E363204603F09AFA94F81B
:1020DC002430002BCFD0226C002ACCD194F82430A1
:1020EC00216843F08003A1F84C3084F82420C2E727
:1020FC00ADF80630BDF806301B051FD5B0F85030D2
:10210C0094F868229BB203EBC20300EB4303D3F8B1
:10211C000C34B4F86C22C3F30903C4F8843204F20F
:10212C00AC4101F082FD22682046138823F0700335
:10213C001B051B0D138003F055FA9CE7BDF8063008
:10214C001E0498D5038823F070031B051B0D038018
:10215C00B0F8503094F868229BB203EBC20300EB4A
:10216C004303D3F80C34C3F30903C4F8843263B1CA
:10217C00B4F86C22D4F87C1201F057FDD4F87C3200
:10218C00D4F884221344C4F87C320021204603F096
:10219C002FFA2268D4F87852B2F850103E2D89B23A
:1021AC0001F1060102F5806017D9C5F34F13ED0656
:1021BC0004BF03F1FF339BB249EA83239BB240F87F
:1021CC00113013889BB203EA080383F4405343F4A1
:1021DC00004343F0800313804DE7C5F34F03EE0734
:1021EC0044BF01339BB29B02E8E730F826309BB228
:1021FC00ADF80630BDF806301D0440F147812422AD
:10220C0030F8263002FB064223F070031B051B0D31
:10221C0020F8263092F8723200F5806533BBB0F8A6
:10222C00503092F868129BB2063303EBC10355F899
:10223C001350C5F30905002D00F00981B2F86CE2CA
:10224C002421714304EB010CDCF880329D4240F2F6
:10225C00788101F51A71214401F0E3FB3CE000BFE9
:10226C000F8FFFFF8FBFFFFF0080FFFFBDF8063011
:10227C00590640F1C980B2F88AC2BCFA8CFC4FEA0C
:10228C005C1C242101FB064191F86832D1F88022B4
:10229C004FEAC30EB0F850309BB27344BCF1000F40
:1022AC0000F03281063355F81350B1F870E2C5F3E3
:1022BC0009053AB1D1F87C3223B1BDF806305A0683
:1022CC0000F1AA804FF6FF73002D08BF1D46242392
:1022DC0003FB0646A6F88A52206801F020FC430551
:1022EC000FD522682046B2F8443023F480631B04D7
:1022FC001B0CA2F8443003F090F900212046FFF7A4
:10230C005BFD206801F00BFC470408D52268B2F88D
:10231C00443023F480431B041B0CA2F84430206887
:10232C0001F0FDFB860408D52268B2F8443023F492
:10233C0000531B041B0CA2F84430206801F0EFFB87
:10234C00C5041CD522682046B2F8403023F00403A3
:10235C001B041B0CA2F84030B2F8403023F00803E9
:10236C001B041B0CA2F8403003F074F92268B2F87D
:10237C00443023F480531B041B0CA2F84430206817
:10238C0001F0CDFB00051DD52068B0F840309BB2A4
:10239C0043F00803A0F84030B0F8443023F4006355
:1023AC001B041B0CA0F84430B0F840309BB243F037
:1023BC000403A0F8403001F0B2FBC10402D4204663
:1023CC0003F038F9206801F0AAFB82050BD52268CE
:1023DC002046B2F8443023F400731B041B0CA2F803
:1023EC00443003F016F9206801F099FBC30508D5B9
:1023FC002268B2F8443023F480731B041B0CA2F83F
:10240C00443003B0BDE8F083B2F888C2BCF1000CD4
:10241C0018BF4FF0010C34E70023A1F88832002DCF
:10242C007FF40EAF242303FB064393F8722272B1A0
:10243C0093F86812226832F8213023F0F0031B0560
:10244C001B0D43F4004343F0C00322F82130242336
:10245C0003FB0643D3F884222A44C3F88422D3F81E
:10246C007C222A44C3F87C22D3F88022521BC3F866
:10247C0080221AB1D3F87822954269D2242303FB27
:10248C000643204693F8681203F0B2F8BDF8063004
:10249C001D067FF5F0AD2420236800FB064033F8C1
:1024AC00262003F5806192B23A4023F8262090F85A
:1024BC003220002A61D1B3F8502090F8285092B203
:1024CC00023202EBC50251F81220C2F30902426437
:1024DC00242202FB0646B3F8503096F828209BB213
:1024EC00023303EBC20351F81320F36BC2F309025E
:1024FC0072641A44336C204696F82810F263002B51
:10250C0061D103F07EF8B6E5023355F81350B1F8FB
:10251C006EE2C5F3090532B1D1F87C321BB1BDF8BE
:10252C0006305B060AD54FF6FF73002D08BF1D461B
:10253C00242303FB0646A6F88852CDE6A1F88AC2EE
:10254C006DE72B467246DCF87C1201F06EFB69E7F6
:10255C0093F87222002A99D193F86812226832F803
:10256C0021309BB203EA080383F4405343F4004345
:10257C0043F0800322F8213088E790F8282033F8C4
:10258C002250D000B3F8502092B2024468064FF0AB
:10259C00240048BF023200FB064058BF063251F8F7
:1025AC001220C2F30902426490F8280033F820206C
:1025BC0022F0F0021205120D42F4404242F0800269
:1025CC0023F8202084E7FFF731FD54E538B50D469C
:1025DC00242311F0800F0DBF03FB050301F07F01D5
:1025EC0003FB010103F51A714FF0010318BF2831E9
:1025FC008B7090F8A82404469A420FD080F8A83427
:10260C00006801F00EFA6B0604D1206804F2AC41AC
:10261C0001F089FA002084F8A80438BD0220FCE7F8
:10262C0038B52423002511F0800F1BBF01F07F016A
:10263C0003FB010103FB0101283108BF01F51A71ED
:10264C008D7090F8A8340446012B09D0012380F832
:10265C00A834006801F017FA284684F8A85438BD4D
:10266C000220FCE710B5242411F0800F1BBF01F0F1
:10267C007F0104FB010004FB0100283008BF00F5BA
:10268C001A7099B21AB982728180002010BD012291
:10269C001B0C8272C1800381F7E770472DE9F3416F
:1026AC00054638B30368DB0710D42B689F075ED44C
:1026BC002B68190700F195802B685A0700F1BF8031
:1026CC00E869002840F02C81002029E08F4C6368D9
:1026DC0003F00C03042B07D0636803F00C03082BE6
:1026EC000AD16368DE0307D523689C03DDD56B68CC
:1026FC00002BDAD1012013E06B68B3F5803F12D1C7
:10270C00236843F480332360FEF77AFD0646236882
:10271C009803CAD4FEF774FD801B6428F7D90320F4
:10272C0002B0BDE8F0819BB9236823F480332360A9
:10273C00236823F480232360FEF762FD064623689A
:10274C009903B2D5FEF75CFD801B6428F7D9E6E748
:10275C00B3F5A02F236803D143F480232360CFE784
:10276C0023F480332360236823F48023CBE7674C66
:10277C00636813F00C0F07D0636803F00C03082B8D
:10278C0010D16368DA030DD423689B0702D52B693B
:10279C00012BAFD123686A6923F0F80343EAC20323
:1027AC00236085E72A695A4B6AB101221A60FEF749
:1027BC0027FD064623689F07ECD4FEF721FD801BFE
:1027CC000228F7D9ABE71A60FEF71AFD0646236814
:1027DC0098077FF56DAFFEF713FD801B0228F6D925
:1027EC009DE7AA69494E4B4BDAB101221A60FEF7FC
:1027FC0007FD0446736A9B070DD54FF4FA52464BFE
:10280C001B68B3FBF2F3019300BF019B5A1E0192AC
:10281C00002BF9D150E7FEF7F3FC001B0228E9D995
:10282C007DE71A60FEF7ECFC0446736A9F077FF5A0
:10283C0043AFFEF7E5FC001B0228F6D96FE7334CDB
:10284C00E369D80024D40127E36943F08053E361A2
:10285C00E36903F080530093009B304E3368D90535
:10286C0018D5EB68012B26D1236A43F001032362B0
:10287C00FEF7C6FC41F288380646236A9B073FD513
:10288C00002F3FF41DAFE36923F08053E36117E79A
:10289C000027E2E7336843F480733360FEF7B0FC43
:1028AC0080463368DA05DCD4FEF7AAFCA0EB0800FE
:1028BC006428F6D933E7ABB9236A41F2883823F0A0
:1028CC0001032362236A23F004032362FEF798FCBE
:1028DC000646236A9807D3D5FEF792FC801B404529
:1028EC00F7D91CE7052B236A03D143F004032362B9
:1028FC00BAE723F001032362236A23F00403B6E74B
:10290C00FEF77EFC801B4045B7D908E7001002405B
:10291C000000424280044242280000200070004027
:10292C002A4B5A681C4602F00C02082A3DD00023A0
:10293C00274E022833602BD1FEF762FC0746236832
:10294C0099011FD42B6AB3F5803F05D16268A96841
:10295C0022F400320A436260696A62680B4322F413
:10296C0074121343636001233360FEF749FC054680
:10297C0023689A013FF5A8AEFEF742FC401B0228E3
:10298C00F6D9CCE6FEF73CFCC01B0228D7D9C6E62C
:10299C00FEF736FC054623689B017FF595AEFEF7E6
:1029AC002FFC401B0228F6D9B9E601283FF4B8AE3B
:1029BC005B682A6A03F4803191427FF49BAE6A6AA9
:1029CC0003F4701393423FF47FAE93E60010024081
:1029DC006000424230B5184B87B002AC03F11005D1
:1029EC00224618685968083303C2AB421446F7D123
:1029FC0040F201231149ADF804304B6803F00C028E
:102A0C00082A17D1C3F3834206A80244DB0312F849
:102A1C00102C0CD54B680A48C3F34043504306AA0C
:102A2C00134413F8143CB0FBF3F007B030BD054869
:102A3C005043FAE70248F8E7649600080010024099
:102A4C0000127A0000093D002DE9F0410D460446C4
:102A5C0010B90120BDE8F081444A136803F0070364
:102A6C008B4228D321688E0730D4CA0743D43F4AFF
:102A7C00136803F00703AB4265D822683C4D12F093
:102A8C00040F6CD1130706D56B68226923F46053CD
:102A9C0043EAC2036B60FFF79DFF6B68354AC3F3D3
:102AAC000313D35CD840344B1860344B1868FEF7D2
:102ABC0065FB0020CEE7136823F007030B4313607C
:102ACC00136803F007038B42C3D1CBE7284B11F0FB
:102ADC00040F1EBF5A6842F4E0625A60080742BFF6
:102AEC005A6842F460525A605A68A06822F0F002A8
:102AFC0002435A60B9E762681D4E012A33681AD145
:102B0C0013F4003FA5D0736841F2883823F0030317
:102B1C0013437360FEF774FB07467368626803F037
:102B2C000C03B3EB820FA2D0FEF76AFBC01B40452F
:102B3C00F3D903208EE7022A02D113F0007FE1E7DC
:102B4C0013F0020FDEE7136823F007032B43136027
:102B5C00136803F00703AB427FF47BAF8DE76B6820
:102B6C00E16823F4E0630B436B608BE700200240C9
:102B7C0000100240289700082800002010000020B8
:102B8C00044B054A5B68C3F30223D35C034A106809
:102B9C00D8407047001002403897000828000020E9
:102BAC00044B054A5B68C3F3C223D35C034A106829
:102BBC00D8407047001002403897000828000020C9
:102BCC0003682DE9F341D907054620D5354CE36957
:102BDC00DA0032D40127E36943F08053E361E369FF
:102BEC0003F080530193019B2F4E3368DB0526D5F0
:102BFC00236A13F4407336D1236A6A6823F4407352
:102C0C00134323621FB1E36923F08053E361286807
:102C1C00830706D52349AB684A6822F440421A431D
:102C2C004A6010F010001BD01E4AE968536800205F
:102C3C0023F480030B43536012E00027D4E733687E
:102C4C0043F480733360FEF7DBFA80463368D805B3
:102C5C00CED4FEF7D5FAA0EB08006428F6D90320F1
:102C6C0002B0BDE8F0816A6802F440729A42C3D0A7
:102C7C0001200E4A236A1060002023F4407110607A
:102C8C002162D907B8D5FEF7BBFA41F2883806465F
:102C9C00236A9A07B0D4FEF7B3FA801B4045F7D9E4
:102CAC00DDE700BF001002400070004040044242CB
:102CBC00024670B5344B86B002AD03F110062C46BB
:102CCC0018685968083303C4B3422546F7D140F25B
:102CDC000123022AADF8043049D0102A03D0012A6E
:102CEC0026D0002038E0294B5968186810F0807005
:102CFC0032D0C1F3834206A8024412F8100CCA0366
:102D0C0041BF5A6806A9C2F34042521844BF12F898
:102D1C00141C1F4A5B684CBFB2FBF1F21D4A5B02EC
:102D2C0002FB00F018D403234000B0FBF3F013E0D7
:102D3C0040F20231154A136A1940B1F5817F1FD058
:102D4C0003F44073B3F5007F08D149F64043506A51
:102D5C0010F0020018BF184606B070BDB3F5407FE6
:102D6C00BFD110684FF2244310F40030F2E7FFF7A4
:102D7C0017FF064B5B68C3F3813301335B00D4E769
:102D8C004FF40040E8E700BF6496000800100240D2
:102D9C0000127A0000093D00036810B51A68044659
:102DAC00920708D55B689B0705D501F031FA6FF0E7
:102DBC00020223685A604FF40032024B5A6101231D
:102DCC00637410BD0004014070477047036810B570
:102DDC001A69044691070ED5DA6892070BD56FF085
:102DEC0002021A61012202779B699B0777D003F0DC
:102DFC00A7F80023237723681A69500710D5DA68DF
:102E0C0051070DD56FF004021A61022222779B69DB
:102E1C00204613F4407F68D003F092F80023237708
:102E2C0023681A6912070FD5DA6810070CD56FF0F2
:102E3C0008021A6104222277DB69204699075AD0CE
:102E4C0003F07EF80023237723681A69D20610D585
:102E5C00DA68D0060DD56FF010021A6108222277BD
:102E6C00DB69204613F4407F4BD003F069F8002354
:102E7C00237723681A69D10708D5DA68D20705D5F4
:102E8C006FF0010220461A6103F02EF823681A69CC
:102E9C00100608D5DA68110605D56FF080022046B9
:102EAC001A6100F088F823681A69520608D5DA68A6
:102EBC00500605D56FF0400220461A61FFF785FFDA
:102ECC0023681A69910622D5DA6892061FD56FF02D
:102EDC0020022046BDE810401A6100F06BB803F0E8
:102EEC002DF82046FFF770FF83E703F027F8204604
:102EFC00FFF76AFF92E703F021F82046FFF764FF23
:102F0C00A0E703F01BF82046FFF75EFFAFE710BD0C
:102F1C001A4A036890420AD0B0F1804F07D0A2F54C
:102F2C009432904203D002F58062904215D14A68E7
:102F3C0023F070031343114A90420AD0B0F1804F32
:102F4C0007D0A2F59432904203D002F580629042F1
:102F5C0003D1CA6823F4407313434A6923F08003F6
:102F6C00134303608B68C3620B688362034B984204
:102F7C0004BF0B690363012343617047002C0140BC
:102F8C0010B50446A0B190F83D3003F0FF021BB918
:102F9C0080F83C2001F080FA0223206884F83D3050
:102FAC00211DFFF7B5FF0123002084F83D3010BD33
:102FBC000120FCE7704770470368DA6822F49072CE
:102FCC00DA605A6922F001025A61202380F83A3003
:102FDC007047000038B505460368C1681A691924A2
:102FEC0022F440520A431A6182680069D96802438C
:102FFC00686921F4B05121F00C0102430A43DA60F4
:10300C005A69A96922F440720A435A610D4A9342E3
:10301C0014D1FFF7C5FD44436B6864229B00B4FBDD
:10302C00F3F4B4FBF2F102FB11431B013233B3FB9B
:10303C00F2F3286803EB0113836038BDFFF7A0FDA2
:10304C00E9E700BF00380140F8B504460E461746C4
:10305C001D462268136836EA030301D1002014E0F0
:10306C006B1CF7D095B923680320DA6822F4D07270
:10307C00DA605A6922F001025A61202384F839304F
:10308C0084F83A30002384F83830F8BDFEF7B8F8ED
:10309C00C01B8542DDD2E6E7704710B5044640B34D
:1030AC0090F8393003F0FF021BB980F83820FFF795
:1030BC00F3FF2423226884F83930D368204623F4A4
:1030CC000053D360FFF786FF236800201A6922F4AF
:1030DC0090421A615A6922F02A025A61DA6842F463
:1030EC000052DA602023E06384F8393084F83A30F7
:1030FC0010BD0120FCE710B5044660B390F83930E0
:10310C0003F0FF021BB980F83820FFF7C5FF24231A
:10311C00226884F83930D368204623F40053D360F6
:10312C00FFF758FF236800201A6922F490421A61B5
:10313C005A6922F022025A615A6942F008025A6115
:10314C00DA6842F40052DA602023E06384F8393004
:10315C0084F83A3010BD0120FCE72DE9F0411F4600
:10316C0090F839300446202B0D4690464ED100295C
:10317C004AD0002A48D090F83830012B46D0012391
:10318C0080F838300023C363212380F83930FEF7F0
:10319C0037F80646A4F82480A4F82680E38C9BB26A
:1031AC0063B93B46324640212046FFF74DFFA0B99C
:1031BC00202384F8380084F839300FE0E38C324651
:1031CC00013B9BB2E384A3688021B3F5805F20466A
:1031DC003B4610D1FFF738FF10B10320BDE8F0815A
:1031EC002B882268C3F30803536023690BB902359B
:1031FC00D4E70135D2E7FFF727FF0028EDD123688C
:10320C0015F8012B5A60C9E70120E7E70220E5E732
:10321C0090F83930202B18D1A9B1A2B190F83830E0
:10322C00012B12D0C2840023828421220162016806
:10323C00C36380F8383080F83920CA68184642F0E9
:10324C008002CA607047012070470220704790F8D6
:10325C003A30202B20D1E9B1E2B190F83830012B73
:10326C001AD0C285828500232222C36380F83A20BB
:10327C00026880F838308162D168184641F4807158
:10328C00D160516941F001015161D16841F02001D7
:10329C00D1607047012070470220704710B590F83C
:1032AC003A30222B33D181680469B1F5805F836A8F
:1032BC00026823D15268ECB9C2F3080223F8022B3E
:1032CC008362C48D013CA4B2C4858CB90368DA68EE
:1032DC0022F02002DA60DA6822F48072DA605A692D
:1032EC0022F001025A61202380F83A3001F0EAFA08
:1032FC0000200DE0D2B223F8012BE1E7591C5268F3
:10330C0081620CB91A70DCE702F07F02FAE7022046
:10331C0010BD0000036870B51A6804461607D9681A
:10332C005D6907D1960659D58D0657D5BDE8704015
:10333C00FFF7B4BF05F0010001F4907505434DD0C3
:10334C00D60705D5CD0542BFE36B43F00103E3631C
:10335C00530704D518B1E36B43F00203E3639607FC
:10336C0004D518B1E36B43F00403E363150704D5EC
:10337C0018B1E36B43F00803E363E36B4BB39006C4
:10338C0004D5890602D52046FFF788FF236820461E
:10339C005B69E56B03F0400305F008051D4319D08C
:1033AC00FFF70AFE23685A6952060FD55A69606BFB
:1033BC0022F040025A6148B1254B4363FEF7F4FA00
:1033CC0038B1606BBDE87040436B1847204601F084
:1033DC008FFA70BD01F08CFAE563FAE7160628D572
:1033EC000D0626D594F83920212AF2D1A168226A3B
:1033FC00B1F5805F18D11188C1F3080159602169BA
:10340C0081B902322262E28C013A92B2E284002A41
:10341C00DFD1DA6822F08002DA60DA6842F040022A
:10342C00DA60D6E70132EDE7511C216212785A605E
:10343C00E9E75006CDD54A06CBD5DA68204622F00E
:10344C004002DA60202384F8393001F03EFAC0E7FC
:10345C006134000808B50023406AC385C38401F0B9
:10346C0047FA08BD90F83830012B11D0242302689C
:10347C0080F83930D36823F00C0343F00803D36091
:10348C00202380F83930002380F8383018467047F4
:10349C000220704790F83830012B11D02423026899
:1034AC0080F83930D36823F00C0343F00403D36065
:1034BC00202380F83930002380F8383018467047C4
:1034CC000220704790F8392090F83A00104370476A
:1034DC0084B001A880E80E0004B000207047B0F85A
:1034EC0040309BB243F43F43A0F84030002070477B
:1034FC00B0F8403023F474535B045B0CA0F84030FC
:10350C00002070470020704784B010B5044603A813
:10351C0080E80E0000200123A4F84030A4F84000FD
:10352C00A4F84400A4F85000B4F840309BB243F423
:10353C003F43A4F84030BDE8104004B07047000091
:10354C0070B5CB780A78032B0FD8DFE803F002664E
:10355C00525B30F8223023F4EC4323F070031B044D
:10356C001B0C43F4007320F8223040F60F720C78D9
:10357C0030F824301340234343F4004343F08003DA
:10358C0020F824308C7A0D7800F58063002C40F004
:10359C0092808C884E786408012E4FEA44044FEADE
:1035AC00C50545D1B0F85060B6B2354443F8154066
:1035BC000C7830F824305D0608D530F824301A40E9
:1035CC0042F4004242F0C00220F824200A7830F87D
:1035DC00223023F4E04323F040031B041B0C83F044
:1035EC00200343F4004343F0800320F822300020F2
:1035FC0070BD30F8223023F4EC4323F070031B042D
:10360C001B0CB0E730F8223023F4EC4323F07003AA
:10361C001B041B0C43F4C063A5E730F8223023F4E1
:10362C00EC4323F070031B041B0C43F480639AE7F8
:10363C00B0F8502092B22A44043243F81240B0F849
:10364C0050400D690A78A4B206343E2D04EBC20436
:10365C0029D9C5F34F16EA0604BF06F1FF3296B21C
:10366C00894A42EA862292B243F814200A7830F84A
:10367C0022305B040BD530F8223023F0F0031B050D
:10368C001B0D43F4404343F0800320F822300A78AA
:10369C0030F8223023F4804323F070031B041B0CFE
:1036AC0083F400539DE7C5F34F02ED0744BF01328D
:1036BC0092B29202D7E730F8254024F4F87424052E
:1036CC00240D44F4014444F0800420F82540B0F863
:1036DC0050400D78A4B204EBC504CD886D086D0084
:1036EC0043F81450B0F850400D78A4B2043404EBF5
:1036FC00C5040D896D086D0043F814504C780D7895
:10370C00012C3AD130F825305E0408D530F825303C
:10371C00134043F4404343F0800320F825300A78EB
:10372C0030F822305C060BD530F8223023F0F00351
:10373C001B051B0D43F4004343F0C00320F822305B
:10374C0048F280020C7830F8243023F4E04323F064
:10375C0040031B041B0C83F03003134320F824306C
:10376C00097830F8213023F4804323F070031B04D4
:10377C001B0C134320F8213039E7ACB9B0F850409A
:10378C00A4B2023404EBC5040D693E2D60D9C5F317
:10379C004F16EA0604BF06F1FF3296B23A4A42EAE5
:1037AC00862292B243F814204C780A78002C5FD110
:1037BC00B0F850400D69A4B206343E2D04EBC2049F
:1037CC004ED9C5F34F16EA0604BF06F1FF3296B286
:1037DC002D4A42EA862292B243F814200A7830F835
:1037EC0022305C040BD530F8223023F0F0031B059B
:1037FC001B0D43F4404343F0800320F822300A7839
:10380C0030F822305B060BD530F8223023F0F00371
:10381C001B051B0D43F4004343F0C00320F822307A
:10382C0048F280020C7830F8243023F4804323F0E3
:10383C0070031B041B0C83F44053134320F82430F7
:10384C00097830F8213023F4E04323F040038EE76D
:10385C00C5F34F02ED0744BF013292B29202A0E7CA
:10386C00C5F34F02ED0744BF013292B29202B2E7A8
:10387C00012CB3D1B0F850400D69A4B2023404EB62
:10388C00C20443F81450A9E70080FFFF10B58C7AEE
:10389C004A780B78C4BB012A30F823201ED152067B
:1038AC000BD530F8232022F0F0021205120D42F451
:1038BC00004242F0C00220F823200A7830F822306F
:1038CC0023F4E04323F040031B041B0C43F400439C
:1038DC0043F0800320F82230002010BD54040BD597
:1038EC0030F8232022F0F0021205120D42F440426F
:1038FC0042F0800220F823200A7830F8223023F49A
:10390C00804323F07003DFE7012A30F8232046D1EF
:10391C0052040BD530F8232022F0F0021205120DC0
:10392C0042F4404242F0800220F823200A7830F81A
:10393C0022305C060BD530F8223023F0F0031B0547
:10394C001B0D43F4004343F0C00320F822300A78E7
:10395C0030F8223023F0F0031B051B0D43F44043D9
:10396C0043F0800320F8223048F280020C7830F8C3
:10397C00243023F4E04323F040031B041B0C1343BB
:10398C0020F82430097830F8213023F4804323F0D8
:10399C0070031B041B0C134320F821309CE75204CA
:1039AC000BD530F8232022F0F0021205120D42F450
:1039BC00404242F0800220F823200A7830F822306E
:1039CC005B060BD530F8223023F0F0031B051B0DE2
:1039DC0043F4004343F0C00320F822300A7830F857
:1039EC00223023F0F0031B051B0D43F4004343F07E
:1039FC00C00320F8223048F280020C7830F82430D2
:103A0C0023F4804323F070031B041B0C134320F896
:103A1C002430097830F8213023F4E04323F04003BC
:103A2C00B7E70A788AB9038823F4804323F040036C
:103A3C001B041B0C83F4805383F0100343F40043EA
:103A4C0043F080030380002070474B7883B130F83B
:103A5C00223023F4E04323F040031B041B0C83F0BF
:103A6C00100343F4004343F0800320F82230EAE7CC
:103A7C0030F8223023F4804323F070031B041B0C1A
:103A8C0083F48053EDE74B780A7813B330F8223087
:103A9C005B060BD530F8223023F0F0031B051B0D11
:103AAC0043F4004343F0C00320F822300A7830F886
:103ABC00223023F4E04323F040031B041B0C83F05F
:103ACC00300343F4004343F0800320F822300020FD
:103ADC00704730F822305B040BD530F8223023F0DD
:103AEC00F0031B051B0D43F4404343F0800320F807
:103AFC0022300A7830F8223023F4804323F070030C
:103B0C001B041B0C83F44053DBE711B98023A0F892
:103B1C004C30002070470020704700207047B0F8F0
:103B2C00440080B2704700207047013300F580607C
:103B3C005B1000EB420203B9704731F8020B013BFA
:103B4C0022F8040BF7E770B50C4663780546012B99
:103B5C00097859D1A3692269A67A934294BF0020AF
:103B6C00981AA06188BF134605F58060CA00F6B9A3
:103B7C00B5F8501089B20A44023240F81230A288CB
:103B8C009BB228466169FFF7D0FFA37AFBB9227874
:103B9C0035F8223023F4E04323F040031B041B0CC4
:103BAC0083F0300343F4004343F080031CE035F80A
:103BBC00211011F0400FB5F8501089B20A4402F1EF
:103BCC00020240F8123014BF2289E288D8E76378E9
:103BDC0073B9227835F8223023F0F0031B051B0D46
:103BEC0043F4004343F0C00325F82230002070BD9D
:103BFC00012BFBD1227835F8223023F0F0031B0582
:103C0C001B0D43F44043CFE730F8213023F48043BD
:103C1C0023F070031B041B0C83F4405343F4004348
:103C2C0043F0800320F82130E0E710B50024013385
:103C3C0000F580605B1000EB42009C4200D110BD8F
:103C4C0050F8242021F814200134F6E786B004281B
:103C5C0041D8DFE800F003101C2834001F4B20482B
:103C6C009A6942F004029A619B6903F00403019380
:103C7C00019B06B07047194B1A489A6942F008022A
:103C8C009A619B6903F008030293029BF1E7134BC3
:103C9C0015489A6942F010029A619B6903F010036F
:103CAC000393039BE5E70D4B10489A6942F0200201
:103CBC009A619B6903F020030493049BD9E7074B9B
:103CCC000B489A6942F040029A619B6903F04003E9
:103CDC000593059BCDE70020CBE700BF0010024009
:103CEC0000080140000C014000100140001401408C
:103CFC0000180140FDF784BA704708B5FDF774FA57
:103D0C00FDF74DFEFFF7F8FF08BD00000B4BDA681E
:103D1C00D2015EBFDA6842F08072DA600022084B92
:103D2C005A601A6842F001021A6000BF00BF00BF5F
:103D3C005868B0FA80F04009704700BFF0ED00E021
:103D4C00001000E008B5FFF7E1FFFDF73BFABDE816
:103D5C00084000F0E3BF00007B4B82B09A69013849
:103D6C0042F001029A619B6903F001030193019BEC
:103D7C0023282CD8DFE810F024002D0034003B0061
:103D8C00400047004C00530058005F0068006D0075
:103D9C0074007D008200890092009B00A000A700A7
:103DAC00B000B500BC002B002B002B00C100C800DC
:103DBC002B002B002B002B00CD00D200D900E000F3
:103DCC00624A536843F0E06343F00103536002B06E
:103DDC0070475E4A536823F0010343F0E063F5E754
:103DEC005A4A536843F0E06343F00203EEE7574A44
:103DFC00536823F00203F0E7544A536843F0E0633E
:103E0C0043F00403E2E7514A536823F00403E4E768
:103E1C004E4A536843F0E06343F00803D6E74B4A3D
:103E2C00536823F00803D8E7484A536843F0E0632B
:103E3C0043F03003CAE7454A536823F0300343F09C
:103E4C00E06343F01003C1E7404A536823F03003AA
:103E5C00C3E73E4A536843F0E06343F0C003B5E761
:103E6C003A4A536823F0C00343F0E06343F0400345
:103E7C00ACE7364A536823F0C003AEE7334A5368C5
:103E8C0043F0E06343F44073A0E7304A536823F4F3
:103E9C00407343F0E06343F4007397E72B4A536895
:103EAC0023F4407343F0E06343F480738EE7274AB6
:103EBC00536823F4407390E7244A536843F0E0635B
:103ECC0043F4406382E7214A536823F4406343F090
:103EDC00E06343F4006379E71C4A536823F44063BE
:103EEC007BE71A4A536843F0E06343F480536DE771
:103EFC00164A536823F480536FE7144A536843F00F
:103F0C00E06343F4004361E7104A536823F4004331
:103F1C0063E70E4A536823F0E06357E70B4A536894
:103F2C0023F0E06343F0807350E7084A536823F0B2
:103F3C00E06343F0007349E7044A536823F0E063FD
:103F4C0043F0806342E700BF0010024000000140D4
:103F5C0070B50D0E445991FAA1F3B3FA83F30F2601
:103F6C009B0006FA03F324EA030491FAA1F1B1FAD7
:103F7C0081F1890002FA01F12143415170BD70B504
:103F8C000D0E445991FAA1F3B3FA83F304269B0066
:103F9C0006FA03F324EA030491FAA1F1B1FA81F1D0
:103FAC00890002FA01F12143415170BD431C04D038
:103FBC000C3131F90C3C5A1C01D100207047834262
:103FCC0001F10C01F5D1012070470000624B2DE985
:103FDC00F74F00F00F0253F82250431C07460E46D1
:103FEC0001F00709C1F3062BC0F303141FFA80F884
:103FFC0003D14821594800F01DF92046FFF726FE51
:10400C00B9F1010F04464FEA156A45D150F80A1070
:10401C0095FAA5F2B2FA82F20323920003FA02F2A5
:10402C0021EA020295FAA5F0B0FA80F080008340F4
:10403C001343012244F80A302946204609F1FF397E
:10404C00FFF786FFB9F1010F06D816F0080218BF6A
:10405C0004222946FFF793FF54F80A10C6F3011601
:10406C0095FAA5F2B2FA82F39A000F2393400B4013
:10407C0095FAA5F2B2FA82F2012E4FEA820223FAE5
:10408C0002F322D0022E4BD0082B31D10422294628
:10409C002046FFF75DFF2BE0B9F1030F0DD8DFE8E9
:1040AC0009F0021207105846FFF756FE0822C3E724
:1040BC005846FFF751FE0922BEE78D21274800F034
:1040CC00B9F80022B8E74A46B6E7042B04D1082217
:1040DC0029462046FFF73CFFE2682B0A22EA15220C
:1040EC0093FAA3F5B5FA85F301259D401543E560D8
:1040FC001B4B9A6942F001029A619B6903F0010320
:10410C000193019BA8F10D03012B17D8154A536895
:10411C0023F0E06343F08063536003B0BDE8F08F9D
:10412C00042B04D1082229462046FFF711FFE3682F
:10413C002A0A23EA152592FAA2F2D8E70F2F04D007
:10414C00A8F11308B8F1010FE7D8064A536823F019
:10415C00E06343F00073DFE7E8960008759600080B
:10416C000010024000000140431C06D170478342FE
:10417C0002D18968FFF72ABF0C31B1F900305A1C03
:10418C00F5D1B921014800F055B800BF759600086B
:10419C00B1F900305A1C01D100207047834201D183
:1041AC00486870470C31F3E7431C01D0FFF7F0BFB0
:1041BC00002070474B6813B94FF0FF3070478342B3
:1041CC0002D1B1F9000070470C31F3E708B1FFF7E9
:1041DC00F1BF4FF0FF3070470346B1F90000421CAD
:1041EC0000D17047984201D1886870470C31F4E7D0
:1041FC00431C01D0FFF7F0BF704703468B420846C3
:10420C0004D01BB100290CBF1846002070470000D9
:10421C00034B1B6813B1034A10681847704700BF63
:10422C00D0040020E80400200148FEF7B5BD00BF13
:10423C00D4040020FEE7000008B54FF48062024968
:10424C00024802F009F908BD00FC0108F004002046
:10425C0010B50446FFF7F0FF014B185D10BD00BF11
:10426C00F0040020002370B586B0CDE901330123A2
:10427C000F4C0593CDE90334FDF704FCA8B93422A7
:10428C000C4B01A9DA6002A8FDF7B8FC58B90A4D2D
:10429C000A4E2146F5E802230320FDF739FC10B93C
:1042AC000834B442F5D1FDF7FFFB06B070BD00BF7A
:1042BC0000FC010800200240F0040020000002086D
:1042CC00014B1954FFF7CEBFF00400200F4B1A68B6
:1042DC0042F001021A6059680D4A0A405A601A6885
:1042EC0022F0847222F480321A601A6822F480223E
:1042FC001A605A6822F4FE025A604FF41F029A6048
:10430C004FF00062034B9A60704700BF00100240F0
:10431C000000FFF800ED00E00438704703681D4A08
:10432C0084B093420BD11C4B9A6942F400629A619F
:10433C009B6903F400630093009B04B07047B3F1D6
:10434C00804F10D0154A934218D0154A9342F4D19D
:10435C00114BDA6942F00402DA61DB6903F0040301
:10436C000393039BE9E70C4BDA6942F00102DA6133
:10437C00DB6903F001030193019BDEE7064BDA696D
:10438C0042F00202DA61DB6903F002030293029B42
:10439C00D3E700BF002C0140001002400004004095
:1043AC00000800400368124A934206D102F56442A9
:1043BC00936923F4006393617047B3F1804F06D087
:1043CC000C4A934209D00C4A93420BD070470B4ACB
:1043DC00D36923F00103D3617047084AD36923F0F2
:1043EC000203F8E7054AD36923F00403F3E700BF9F
:1043FC00002C014000040040000800400010024066
:10440C0008B5431C01460DD00D4B984212D00CD868
:10441C00B0F1804F10D0A3F5806398420ED00948BC
:10442C00FFF708FF6FF00D0008BD074B9842F6D15F
:10443C001920F9E71E20F7E71C20F5E71D20F3E70C
:10444C000008004040970008002C014008B5431CB0
:10445C0001460DD00D4B984212D00CD8B0F1804FC4
:10446C0010D0A3F5806398420ED00948FFF7E2FE06
:10447C006FF00D0008BD074B9842F6D11B20F9E7F1
:10448C001E20F7E71C20F5E71D20F3E7000800408D
:10449C0040970008002C014038B50446FFF73EFF5A
:1044AC000068FFF7ADFFD4E91012FDF7FDF92068A5
:1044BC00FFF7A6FFFDF72AFA2068FFF7C7FF0546AE
:1044CC002068FFF79DFF85420DD02068FFF7BEFFE7
:1044DC00D4E91012FDF7E8F92068FFF7B7FFBDE843
:1044EC003840FDF713BA38BD2DE9FF47044689461D
:1044FC00B0F94C00484990461F46DDF830A0FFF754
:10450C0053FE46490546B4F94E00FFF74DFE0646EC
:10451C00002D7ED0B4F94E30013301D0002878D074
:10452C0031462846FFF769FE2060002871D03C4BCD
:10453C00984238D103F55843DA6842F48042DA6085
:10454C00DA6822F48042DA609A6942F480429A6115
:10455C009B6903F480430193019B2523A4F85030FD
:10456C002D49B4F94C00FFF7FFFD26B12B49B4F9E6
:10457C004E00FFF7F9FD94F851202A4B201D43F80B
:10458C00220023680C22C4E901390023C4E9038A00
:10459C00C4E9062367612362002E35D104B0BDE85F
:1045AC00F047FEF7A8BD204B984215D103F5E63332
:1045BC001A6942F400321A611A6922F400321A6143
:1045CC00DA6942F40032DA61DB6903F400330293F6
:1045DC00029B4FF49373C1E7144B9842C0D1144D16
:1045EC002B6943F480232B612B6923F480232B61EB
:1045FC00EB6943F48023EB61EB6903F480230393B1
:10460C00039B40F22723A9E704B0BDE8F047FEF76F
:10461C0044BD04B0BDE8F087509900081499000817
:10462C0000380140F00800200044004000480040E1
:10463C000010024008B1FFF757BF70470F4B13B57E
:10464C00B3F916400E492046FFF7AEFD98B10C4960
:10465C002046FFF7A9FD0B49FFF7B8FD03460A48B2
:10466C004FF41651A0F84E300023A0F84C401A46D7
:10467C000093FFF739FF02B010BD00BFB0990008DE
:10468C0050990008149900082C0000202DE9F047DF
:10469C000D460646FCF7B4FD314B0746B3F91680C0
:1046AC0030494046FFF780FD10B90020BDE8F08787
:1046BC002D4C94F85130022B28D90023DFF8AC9004
:1046CC00DFF8A0A084F8513094F85130022B13D8A5
:1046DC0059F823302BB994F85130013384F8513008
:1046EC00F2E751464046FFF75FFD94F8513059F818
:1046FC0023301B688342EED194F85130022B1ED923
:10470C00FFF79CFF94F85130022BCED894F950004F
:10471C00FDF70AF9DFF854801FFA85F994F8510077
:10472C004FF47A734A46314658F82000FEF715FDCF
:10473C0068B994F95000FDF7E9F82846B6E70B4A3A
:10474C0052F8233093F94C3084F85030DEE7FCF704
:10475C0057FDC01BB0F57A7FE0D30025E9E700BF19
:10476C00B0990008509900082C000020F008002097
:10477C0008B5074B90F8512053F82200FEF7A2FE23
:10478C0000F02200A0F122035842584108BD00BF9E
:10479C00F008002008B5074B90F8512053F8220080
:1047AC00FEF790FE00F02100A0F121035842584181
:1047BC0008BD00BFF008002070B50E46054610B9C4
:1047CC004FF0FF3070BDFFF7D3FF04460028F7D140
:1047DC00294611F8523F0122337095F85100034BD2
:1047EC0053F82000FEF733FD2046EBE7F0080020DD
:1047FC0070B50E460446F0B1FFF7BAFF0546D0B9C6
:10480C0094F950006664FDF78FF894F851000A4B48
:10481C0004F15201012253F82000FEF718FD94F91F
:10482C0050002A460121FDF73FF894F95000BDE8ED
:10483C007040FDF76BB870BDF008002010B5044651
:10484C00E8B1816490F95000FDF76EF8B4F862306D
:10485C00A16D9BB294F851001944094B012253F8F5
:10486C002000FEF7D5FC94F9500000220121FDF741
:10487C001BF894F95000BDE81040FDF747B810BD87
:10488C00F008002050B1B0F94E30013306D190F849
:10489C005120034B53F82200FEF7E4BD704700BFD4
:1048AC00F008002050B1B0F94E30013306D190F829
:1048BC005120034B53F82200FEF7ECBD704700BFAC
:1048CC00F0080020036C0438184710B5436C0446FC
:1048DC000438984701300AD0B4F85E30616D9BB251
:1048EC002046BDE8104001221944FEF791BC10BDD2
:1048FC001FB503680446186810F0010013D000229D
:10490C0000921A6800925B680093009B201FFFF7CF
:10491C002FFF40BB0122204604F14E0104B0BDE83C
:10492C001040FEF794BC196811F0020106D00190FA
:10493C001A6801925B680193019BE7E71A6812F011
:10494C00040206D002911A6802925B680293029BE1
:10495C00DCE719680907D9D503921A6803925B68DA
:10496C000393039BD2E704B010BD000008B52520CB
:10497C00FDF704F8024B1868BDE80840FEF7CABC06
:10498C00F008002008B52620FCF7F8FF024B586809
:10499C00BDE80840FEF7BEBCF0080020272008B593
:1049AC00FCF7ECFF034B986818B1BDE80840FEF724
:1049BC00B1BC08BDF00800200368134A82B09342D2
:1049CC0012D1124B9A6942F400729A619B6903F4FA
:1049DC0000730093009B0E4BB3F90000C30511D478
:1049EC000C4902B0FFF7C0BB0B4A9342F3D1074B03
:1049FC009A6942F480629A619B6903F48063019323
:104A0C00019BE8E702B0704700240140001002400F
:104A1C009000002058970008002801400368124AB3
:104A2C0093420DD1114BDA6842F40072DA60DA6805
:104A3C0022F40072DA609A6922F400729A6170476B
:104A4C000B4A9342FBD1094BDA6842F48062DA607C
:104A5C00DA6822F48062DA609A6922F480629A61E0
:104A6C009A6922F48062E9E70024014000100240B8
:104A7C0000280140F0B591B004463022002104A872
:104A8C0001F012FD0023E205CDE901330393ADF8EB
:104A9C0002300FD5B4F5817F0CDC3A4B049340F215
:104AAC0001139C421CD0B4F5817F0CBF112500254D
:104ABC00072610E034492046FFF776FB3249049074
:104ACC002046FFF795FBC0F3C4356B1E102B4FF03F
:104ADC00020688BF0025049B23B9002011B0F0BD4D
:104AEC001025E5E7002301274FF46022CDE90533BB
:104AFC008DF81C308DF824300A930E930C938DF89E
:104B0C003430224B04A808970B921C80FCF75AFDFA
:104B1C000028E2D101A904A8CDE901570396FCF7BE
:104B2C0015FC0028D9D104A8FCF744FE0028D4D1E8
:104B3C0004A8FCF7C3FC0028CFD10A2104A8FCF779
:104B4C0065FB0028C9D104A8FCF77EFC830505D5BC
:104B5C0004A8FCF7F7FB80B2ADF8020004A8FCF740
:104B6C000FFE0028B9D104A8FCF7AAFD0028B4D187
:104B7C00044A936823F400039360BDF8020080B2EA
:104B8C00ACE700BF002401405897000890000020BB
:104B9C00F8B514490646FFF707FB01F0CBF8124CA9
:104BAC00054654F8203073B90E493046FFF7FCFA2D
:104BBC000746A82001F0E8FA0646394601F0F6F857
:104BCC0054F825301E6054F825301C6844B120463A
:104BDC0001F0CCF82046BDE8F840A82101F0D6BA87
:104BEC00F8BD00BFDC970008540B0020836810B59B
:104BFC00044613B1032201469847204610BD00001D
:104C0C000023012803F1010202D013464008F8E703
:104C1C001421DBB24B43044A181D1044816811B1B6
:104C2C001A44136918477047FC0800200120FDF74F
:104C3C0031B80220FDF72EB80420FDF72BB8082060
:104C4C00FDF728B81020FDF725B838B50524202528
:104C5C00A8B2FDF71FF8013C4FEA4505F8D138BD65
:104C6C0038B506244FF48065A8B2FDF713F8013C63
:104C7C004FEA4505F8D138BD0721204B062219759E
:104C8C00082183F82810092183F83C100A2183F8A5
:104C9C00501017211A7083F86410002283F87810D2
:104CAC0083F88C1083F8A01083F8B4102821DA60F4
:104CBC001A625A639A64DA651A67C3F88420C3F8D7
:104CCC009820C3F8AC20C3F8C02083F8C810C3F8F0
:104CDC00D42083F8DC10C3F8E82083F8F010C3F874
:104CEC00FC2083F80411C3F8102183F81811C3F8C1
:104CFC00242183F82C11C3F838217047FC080020BC
:104D0C0038B5054CA4F5A075143C201DFFF76EFFBB
:104D1C00AC42F9D138BD00BF3C0A002010B54FF4AD
:104D2C0080330122022494B00021CDE90A23CDE97D
:104D3C0011434FF4E0130AA80C910E921393FDF754
:104D4C00ADFC00B1FEE70F23CDE905344FF48063D1
:104D5C000790CDE90830214605A8FDF775FE00B196
:104D6C00FEE7122301934FF40043CDE9033001A871
:104D7C00FDF726FF00B1FEE714B010BD002103E0E3
:104D8C000B4B5B58435004310A480B4B42189A4268
:104D9C00F6D30A4A02E0002342F8043B084B9A423D
:104DAC00F9D3FFF793FA01F023FB01F0E3F9704715
:104DBC0024A00008000000204C0400205004002017
:104DCC0044140020FEE70000012870B5064618D8F0
:104DDC000E4C0F4D23788BB92A787AB90D490E48B1
:104DEC0000F026F850B90D490B4800F036F828B9F8
:104DFC00094800F039F8012323702B7016B92B7871
:104E0C00237070BD23782B70FBE700BF3C0A002099
:104E1C003D0A0020A8000020900B00206801002013
:104E2C000A460146014801F0BEBA00BF900B0020B3
:104E3C0008B580B1D0F8B43213B10023C0F8B43245
:104E4C0009B1C0F8B0120123027080F89C3200F056
:104E5C0031FC002008BD0220FCE719B1C0F8B412E7
:104E6C00002070470220704708B500F059FC002064
:104E7C0008BD08B5D0F8B4320BB9022008BD1B68C8
:104E8C0098470028FAD0F8E708B5D0F8B4325B6838
:104E9C009847002008BD38B500F52A750446284609
:104EAC0000F0E8FA012394F8A812C4F89432B4F88C
:104EBC00AE32C4F8983201F01F03012B08D0022B3C
:104ECC000BD07BB92946204600F0FCF8002038BDF9
:104EDC002946204600F020FAF8E72946204600F043
:104EEC003FFAF3E7204601F0800100F031FCEDE7DA
:104EFC0070B5044616460D4639BBD0F89432032BD8
:104F0C001CD1D0E9581291420BD9891A8A42C0F8A7
:104F1C0060118CBF8AB292B2314600F0FBFA28467F
:104F2C0070BDD0F8B4321B6923B190F89C22032ACF
:104F3C0000D19847204600F0F5FAF0E7052BEED1AA
:104F4C00C4F8941200F004FCE9E7D0F8B4329B6981
:104F5C0033B190F89C22032A02D198470025DEE752
:104F6C000225DCE7F8B5044617460D46002947D163
:104F7C00D0F89432022B3CD1D0E908639E4214D96C
:104F8C00F31A394603629AB200F0BCFA2B462A4651
:104F9C002946204600F00AFC94F8A032012B02D1DD
:104FAC00002384F8A0322846F8BDC269B2FBF3F6A0
:104FBC0003FB16265EB9934209D8D0F898329A4270
:104FCC0005D20A4600F09EFAC4F89852DEE794F82F
:104FDC009C32032B09D1D4F8B432DB680BB12046D8
:104FEC0098478021204600F0B3FB204600F0A5FA3C
:104FFC00D2E733F00403CFD1802100F0A9FBCBE73B
:10500C00D0F8B4325B6933B190F89C22032A02D1F8
:10501C0098470025C7E70225C5E7002270B504466E
:10502C00012540261146402300F081FB33468021A8
:10503C0000222046C4F85851C4F8646100F077FB94
:10504C000021D4F8B832A561666284F89C52C4F889
:10505C0094126160C4F8A41223B1D4F8B43220467F
:10506C005B689847002070BD01740020704790F871
:10507C009C3280F89D32042380F89C3200207047CB
:10508C0090F89C32042B04BF90F89D3280F89C322F
:10509C000020704708B590F89C22032A04D1D0F860
:1050AC00B432DB6903B19847002008BD10B5044643
:1050BC00802100F04DFB2046BDE81040002100F09F
:1050CC0047BB000037B50B78044603F06003202B78
:1050DC000D4612D0402B10D0002B51D14B78092B00
:1050EC004ED8DFE813F0EE000A014D0003014D002D
:1050FC00870013004D00D600A300D4F8B432294623
:10510C0020469B689847002003B030BD0023ADF8C3
:10511C0006304B881A0A013A062A31D8DFE802F029
:10512C000416233030485200D0F8B0321B68207C73
:10513C000DF106019847BDF80620002A56D0EB88E1
:10514C00002B4AD1204600F0EDF9DCE7027CD0F8C8
:10515C00B43232B99B6A0DF10600984702234370B2
:10516C00E9E7DB6AF7E7DBB2052B09D8DFE803F0E8
:10517C00030C1014181CD0F8B0325B68002BD6D17D
:10518C002046FFF793FFBEE7D0F8B0329B68F5E7F7
:10519C00D0F8B032DB68F1E7D0F8B0321B69EDE73C
:1051AC00D0F8B0325B69E9E7D0F8B0329B69E5E73B
:1051BC00037C002BE4D1D0F8B4320DF106005B6B0C
:1051CC009847B8E7037C002BDAD1D0F8B4320DF154
:1051DC0006001B6B98470723C1E79A4228BF1A4663
:1051EC0001462046ADF8062000F07FF9EB88002B35
:1051FC0089D1A7E78B88002BC2D1CB88002BBFD1DC
:10520C004D887F2DBCD890F89C32032BB8D0E9B2D6
:10521C0080F89E1200F0BCFA204600F083F91DB114
:10522C00022384F89C326EE70123FAE78978394D22
:10523C0001292970A4D890F89C32022B08D0032B9A
:10524C0015D0FFF733FF20462978FFF71DFE5AE7EC
:10525C0000293FF477AF01210323416080F89C3291
:10526C002046FFF706FE02287FF46CAF88E731B9C1
:10527C000223416080F89C32FFF706FE62E741682A
:10528C0001293FF45FAFC9B2FFF7FEFD29786160D9
:10529C00E6E7CA88012A7FF473AF90F89C32022BA0
:1052AC000AD8002B3FF46CAF0146002341F8083FAD
:1052BC00204600F01AF926E7032B7FF461AF011D9D
:1052CC00F6E790F89C32013B022B3FF659AFCB88A6
:1052DC00022B7FF455AF0123C360D0F8A4320BB17D
:1052EC000323C360022204F10C01E1E74B88012B7C
:1052FC007FF409AFC4F8A43224E790F89C32013B48
:10530C00022B3FF63DAF4B88012B7FF4FCAE002304
:10531C00F0E700BF3E0A002038B50B78044603F0D6
:10532C006002402A0D4601D05B0615D494F89C32DD
:10533C00013B022B10D82B79022B0DD8D4F8B432A8
:10534C0029469B6820469847EB881BB910B9204624
:10535C0000F0E8F8002038BD2046FFF7A7FEF9E77B
:10536C0038B50A78044602F06002202A0B4627D092
:10537C00402A25D092BB5A788D88012A09793DD0D4
:10538C00032A25D052BB90F89C32022B4DD0032B14
:10539C0024D1142201F00F0315F0800F02FB03033C
:1053AC0054D09B69D3B1142301F07F0505FB033363
:1053BC00C51811F07F0355D12B600222294641E01C
:1053CC00D4F8B4221946204692689047002038BD84
:1053DC0090F89C22022A1FD0032A03D02046FFF704
:1053EC0065FEF3E75A882AB94A0603D0DB880BB965
:1053FC0000F0AEF9204600F095F8E7E790F89C2213
:10540C00022A09D0032AE9D15B88002BDED14D0694
:10541C00F0D000F0A4F9EDE74B06DFD000F098F9DE
:10542C008021204600F094F9D0E74A06D6D12B060D
:10543C004FF000034FF002024CBF00F1140100F5D5
:10544C00AA710B60204600F050F8BFE7D3F8583132
:10545C00002BC3D0142301F07F0503FB050505F5D4
:10546C00AA75A6E7204600F081F908B10123A3E74D
:10547C002860A2E70B7803704B784370CA788B785E
:10548C0003EB022343804A790B7903EB02238380DD
:10549C00CA798B7903EB0223C380704710B504469D
:1054AC00802100F055F92046BDE81040002100F0A5
:1054BC004FB930B588B1002501382B460135445D14
:1054CC00002CFAD1DBB201335B0013800B70032389
:1054DC004B70022310F8015F05B930BD5A1CCD5436
:1054EC00D2B20233DBB28C54F4E71346022210B56D
:1054FC00C0E90733C0F894220A46002100F04FF9A6
:10550C00002010BD08B513460A46002100F047F9EB
:10551C00002008BD08B513460A46002100F046F9E4
:10552C00002008BD08B50423C0F8943200231A46A5
:10553C00194600F034F9002008BD08B50523C0F861
:10554C00943200231A46194600F030F9002008BDA9
:10555C0037B5204B026804469A4239D11E4D03E000
:10556C00A968FEF733FD0C35B5F90000431CF7D1E3
:10557C001A4B0121DA69142042F40002DA61DB696A
:10558C00002203F400030193019BFCF78DF9142016
:10559C00FCF7BCF9A369012B1AD14FF48022104BF4
:1055AC002A205A61DA6822F48022DA609A6842F47E
:1055BC0080229A601A6842F480221A60FCF7A6F9DD
:1055CC0000222A20114603B0BDE83040FCF76CB92C
:1055DC0003B030BD005C00408C9900080010024004
:1055EC000004014000F2AC41D0F8DC04FFF753BCDE
:1055FC00242303FB0103D0F8DC04D3F87C22FFF74F
:10560C0077BC242303FB0103D0F8DC04DA6BFFF72F
:10561C00A9BCD0F8DC04FFF73DBD10B50446D0F8AA
:10562C00DC04FFF7FAFCD4F8DC040121BDE81040DF
:10563C00FFF71ABD10B50446D0F8DC04FFF717FDD0
:10564C00A36923B1024A136943F00603136110BD29
:10565C0000ED00E0836910B5044633B1FFF75EFB43
:10566C00054A136923F006031361D4F8DC04BDE882
:10567C001040FFF705BD00BF00ED00E00148FCF74E
:10568C00E7BC00BF540E002008B5074B9B6933B133
:10569C00064A136923F006031361FFF73FFB4FF42F
:1056AC008022034B5A6108BD540E002000ED00E02F
:1056BC000004014070B5044600F0FEF803231448C2
:1056CC0043600023C0E90733C0E90533C360114BC5
:1056DC00C0F8DC4403600223C4F8C0020361836099
:1056EC00FCF7E4FA20B140F2FD110B48FEF7A2FDE5
:1056FC0000250A4C064E6368228921883046013504
:10570C00FCF7B0FF042D04F10C04F4D1002070BDA3
:10571C00540E0020005C0040F6990008F09A000836
:10572C0008B5D0F8C002FCF730FB002008BD10B55E
:10573C001446D0F8C0021A462346FCF751FB002051
:10574C0010BD08B5D0F8C002FCF76CFB002008BDFA
:10575C0008B5D0F8C002FCF739FF002008BD08B529
:10576C00D0F8C002FCF75CFF002008BD242211F029
:10577C00800FD0F8C0321BBF01F07F0102FB01315A
:10578C0002FB013191F82A0008BF91F86A027047B8
:10579C0008B5D0F8C002FCF70FFB002008BD08B517
:1057AC00D0F8C002FCF742FC002008BD08B5D0F8C8
:1057BC00C002FCF757FB002008BD00001223014873
:1057CC000B80704794000020042301480B80704725
:1057DC00C4000020002370B51E464D1C040FB0F110
:1057EC00204F34BF3034373401F8134005F81360C0
:1057FC000133DCB294424FEA0010EFD370BD0000CD
:10580C001A2310B50B80094B186808331B68C01895
:10581C000AD0074B08221C680649FFF7DBFF04225D
:10582C0020460549FFF7D6FF044810BDE8F7FF1FD7
:10583C00ECF7FF1FCA000020DA000020C80000208F
:10584C0010B5044C0A4604482146FFF732FE2046A8
:10585C0010BD00BF34130020659A00080A4608B535
:10586C00044920B90448FFF724FE024808BD034848
:10587C00F9E700BF34130020789A0008979A0008C3
:10588C0010B5044C0A4604482146FFF712FE204688
:10589C0010BD00BF34130020B69A000810B5044C9C
:1058AC000A4604482146FFF704FE204610BD00BFFF
:1058BC0034130020D19A000808B501210C20FEF702
:1058CC0085FB084B0A201A68074B1B6BC3F30F238D
:1058DC00536100F0BDF8BDE8084000210C20FEF734
:1058EC0075BB00BF14000020E896000891420FD051
:1058FC0008D90123891A8B40984208D30130C8403B
:10590C000138704720B10130511A8840F8E7002067
:10591C0070470000431E1F2B05D80C22044B186047
:10592C00044B1A60704772210348FEF783BC00BF1A
:10593C00E8000020E4000020209B000810B500F0D7
:10594C002BFC431C0AD0064C2168FFF793F8054B3F
:10595C0021681A68BDE81040FFF7C8BF002010BDD1
:10596C00E4000020E800002022282DE9F0410E463A
:10597C003DD8204B33F91040621C38D01E4DC4F377
:10598C00031755F8273004F00F0823FA08F3DB0748
:10599C0010D520461949FEF709FB10B12046FFF738
:1059AC00F7F8012303FA08F255F8273023EA02032B
:1059BC0045F82730052E14D8DFE806F0030F090B45
:1059CC000D1100212046BDE8F041FEF7FFBA102171
:1059DC00F8E72021F6E70321F4E70121F2E709219A
:1059EC00F0E74921BDE8F0410548FEF723BCBDE8CE
:1059FC00F08100BFB0990008400A0020DC97000835
:105A0C00899B000822288EBF4FF0FF330C4B33F9D3
:105A1C001030C3F30312042A98BF0A4803F00F0393
:105A2C0098BF50F82220084888BF002250F8233035
:105A3C00C3F30F2309B1136170475361704700BF63
:105A4C00B099000814000020E8960008FEF752B93F
:105A5C0038B5044648B1FEF74DF9054600F09AFBFF
:105A6C00FEF748F9431BA342F8D338BDB0F86230B7
:105A7C00013303F03F03A0F86230B0F86230B0F8A5
:105A8C005E009BB298424FF0FF3018BF0020704769
:105A9C00B0F8F430B0F8F000181A00F03F0070477E
:105AAC00B0F8F430B0F8F0209BB293421ABFD0F8A3
:105ABC00E830985C4FF0FF30704713B50DF10701DB
:105ACC000446FEF779FE90B9B4F86030B4F85C2067
